{
  "_format": "hh-sol-artifact-1",
  "contractName": "MyEpicNFT",
  "sourceName": "contracts/MyEpicNFT.sol",
  "abi": [
    {
      "inputs": [],
      "stateMutability": "nonpayable",
      "type": "constructor"
    },
    {
      "anonymous": false,
      "inputs": [
        {
          "indexed": true,
          "internalType": "address",
          "name": "owner",
          "type": "address"
        },
        {
          "indexed": true,
          "internalType": "address",
          "name": "approved",
          "type": "address"
        },
        {
          "indexed": true,
          "internalType": "uint256",
          "name": "tokenId",
          "type": "uint256"
        }
      ],
      "name": "Approval",
      "type": "event"
    },
    {
      "anonymous": false,
      "inputs": [
        {
          "indexed": true,
          "internalType": "address",
          "name": "owner",
          "type": "address"
        },
        {
          "indexed": true,
          "internalType": "address",
          "name": "operator",
          "type": "address"
        },
        {
          "indexed": false,
          "internalType": "bool",
          "name": "approved",
          "type": "bool"
        }
      ],
      "name": "ApprovalForAll",
      "type": "event"
    },
    {
      "anonymous": false,
      "inputs": [
        {
          "indexed": false,
          "internalType": "address",
          "name": "sender",
          "type": "address"
        },
        {
          "indexed": false,
          "internalType": "uint256",
          "name": "tokenId",
          "type": "uint256"
        }
      ],
      "name": "NewEpicNFTMinted",
      "type": "event"
    },
    {
      "anonymous": false,
      "inputs": [
        {
          "indexed": true,
          "internalType": "address",
          "name": "from",
          "type": "address"
        },
        {
          "indexed": true,
          "internalType": "address",
          "name": "to",
          "type": "address"
        },
        {
          "indexed": true,
          "internalType": "uint256",
          "name": "tokenId",
          "type": "uint256"
        }
      ],
      "name": "Transfer",
      "type": "event"
    },
    {
      "inputs": [
        {
          "internalType": "address",
          "name": "to",
          "type": "address"
        },
        {
          "internalType": "uint256",
          "name": "tokenId",
          "type": "uint256"
        }
      ],
      "name": "approve",
      "outputs": [],
      "stateMutability": "nonpayable",
      "type": "function"
    },
    {
      "inputs": [
        {
          "internalType": "address",
          "name": "owner",
          "type": "address"
        }
      ],
      "name": "balanceOf",
      "outputs": [
        {
          "internalType": "uint256",
          "name": "",
          "type": "uint256"
        }
      ],
      "stateMutability": "view",
      "type": "function"
    },
    {
      "inputs": [
        {
          "internalType": "uint256",
          "name": "tokenId",
          "type": "uint256"
        }
      ],
      "name": "getApproved",
      "outputs": [
        {
          "internalType": "address",
          "name": "",
          "type": "address"
        }
      ],
      "stateMutability": "view",
      "type": "function"
    },
    {
      "inputs": [
        {
          "internalType": "address",
          "name": "owner",
          "type": "address"
        },
        {
          "internalType": "address",
          "name": "operator",
          "type": "address"
        }
      ],
      "name": "isApprovedForAll",
      "outputs": [
        {
          "internalType": "bool",
          "name": "",
          "type": "bool"
        }
      ],
      "stateMutability": "view",
      "type": "function"
    },
    {
      "inputs": [],
      "name": "makeAnEpicNFT",
      "outputs": [],
      "stateMutability": "nonpayable",
      "type": "function"
    },
    {
      "inputs": [],
      "name": "name",
      "outputs": [
        {
          "internalType": "string",
          "name": "",
          "type": "string"
        }
      ],
      "stateMutability": "view",
      "type": "function"
    },
    {
      "inputs": [
        {
          "internalType": "uint256",
          "name": "tokenId",
          "type": "uint256"
        }
      ],
      "name": "ownerOf",
      "outputs": [
        {
          "internalType": "address",
          "name": "",
          "type": "address"
        }
      ],
      "stateMutability": "view",
      "type": "function"
    },
    {
      "inputs": [
        {
          "internalType": "uint256",
          "name": "tokenId",
          "type": "uint256"
        }
      ],
      "name": "pickRandomFirstWord",
      "outputs": [
        {
          "internalType": "string",
          "name": "",
          "type": "string"
        }
      ],
      "stateMutability": "view",
      "type": "function"
    },
    {
      "inputs": [
        {
          "internalType": "uint256",
          "name": "tokenId",
          "type": "uint256"
        }
      ],
      "name": "pickRandomSecondWord",
      "outputs": [
        {
          "internalType": "string",
          "name": "",
          "type": "string"
        }
      ],
      "stateMutability": "view",
      "type": "function"
    },
    {
      "inputs": [
        {
          "internalType": "uint256",
          "name": "tokenId",
          "type": "uint256"
        }
      ],
      "name": "pickRandomThirdWord",
      "outputs": [
        {
          "internalType": "string",
          "name": "",
          "type": "string"
        }
      ],
      "stateMutability": "view",
      "type": "function"
    },
    {
      "inputs": [
        {
          "internalType": "address",
          "name": "from",
          "type": "address"
        },
        {
          "internalType": "address",
          "name": "to",
          "type": "address"
        },
        {
          "internalType": "uint256",
          "name": "tokenId",
          "type": "uint256"
        }
      ],
      "name": "safeTransferFrom",
      "outputs": [],
      "stateMutability": "nonpayable",
      "type": "function"
    },
    {
      "inputs": [
        {
          "internalType": "address",
          "name": "from",
          "type": "address"
        },
        {
          "internalType": "address",
          "name": "to",
          "type": "address"
        },
        {
          "internalType": "uint256",
          "name": "tokenId",
          "type": "uint256"
        },
        {
          "internalType": "bytes",
          "name": "_data",
          "type": "bytes"
        }
      ],
      "name": "safeTransferFrom",
      "outputs": [],
      "stateMutability": "nonpayable",
      "type": "function"
    },
    {
      "inputs": [
        {
          "internalType": "address",
          "name": "operator",
          "type": "address"
        },
        {
          "internalType": "bool",
          "name": "approved",
          "type": "bool"
        }
      ],
      "name": "setApprovalForAll",
      "outputs": [],
      "stateMutability": "nonpayable",
      "type": "function"
    },
    {
      "inputs": [
        {
          "internalType": "bytes4",
          "name": "interfaceId",
          "type": "bytes4"
        }
      ],
      "name": "supportsInterface",
      "outputs": [
        {
          "internalType": "bool",
          "name": "",
          "type": "bool"
        }
      ],
      "stateMutability": "view",
      "type": "function"
    },
    {
      "inputs": [],
      "name": "symbol",
      "outputs": [
        {
          "internalType": "string",
          "name": "",
          "type": "string"
        }
      ],
      "stateMutability": "view",
      "type": "function"
    },
    {
      "inputs": [
        {
          "internalType": "uint256",
          "name": "tokenId",
          "type": "uint256"
        }
      ],
      "name": "tokenURI",
      "outputs": [
        {
          "internalType": "string",
          "name": "",
          "type": "string"
        }
      ],
      "stateMutability": "view",
      "type": "function"
    },
    {
      "inputs": [],
      "name": "totalMinted",
      "outputs": [
        {
          "internalType": "uint256",
          "name": "",
          "type": "uint256"
        }
      ],
      "stateMutability": "view",
      "type": "function"
    },
    {
      "inputs": [],
      "name": "totalSupply",
      "outputs": [
        {
          "internalType": "uint256",
          "name": "",
          "type": "uint256"
        }
      ],
      "stateMutability": "view",
      "type": "function"
    },
    {
      "inputs": [
        {
          "internalType": "address",
          "name": "from",
          "type": "address"
        },
        {
          "internalType": "address",
          "name": "to",
          "type": "address"
        },
        {
          "internalType": "uint256",
          "name": "tokenId",
          "type": "uint256"
        }
      ],
      "name": "transferFrom",
      "outputs": [],
      "stateMutability": "nonpayable",
      "type": "function"
    }
  ],
  "bytecode": "0x60806040526000600855603260095560405180610160016040528061012f81526020016200469561012f9139600a908051906020019062000042929190620009c5565b506040518061014001604052806040518060400160405280600781526020017f426561746c65730000000000000000000000000000000000000000000000000081525081526020016040518060400160405280600d81526020017f526f6c6c696e6773746f6e65730000000000000000000000000000000000000081525081526020016040518060400160405280600581526020017f4f6173697300000000000000000000000000000000000000000000000000000081525081526020016040518060400160405280600881526020017f436f6c64706c617900000000000000000000000000000000000000000000000081525081526020016040518060400160405280600581526020017f517565656e00000000000000000000000000000000000000000000000000000081525081526020016040518060400160405280600981526020017f4165726f736d697468000000000000000000000000000000000000000000000081525081526020016040518060400160405280600281526020017f553200000000000000000000000000000000000000000000000000000000000081525081526020016040518060400160405280600681526020017f54686577686f000000000000000000000000000000000000000000000000000081525081526020016040518060400160405280600881526020017f546865646f6f727300000000000000000000000000000000000000000000000081525081526020016040518060400160405280600781526020017f4e697276616e6100000000000000000000000000000000000000000000000000815250815250600b90600a620002ad92919062000a56565b506040518061018001604052806040518060400160405280600681526020017f4c656e6e6f6e000000000000000000000000000000000000000000000000000081525081526020016040518060400160405280600981526020017f4d63636172746e6579000000000000000000000000000000000000000000000081525081526020016040518060400160405280600d81526020017f4c69616d67616c6c61676865720000000000000000000000000000000000000081525081526020016040518060400160405280600d81526020017f4e6f656c67616c6c61676865720000000000000000000000000000000000000081525081526020016040518060400160405280600b81526020017f43687269736d617274696e00000000000000000000000000000000000000000081525081526020016040518060400160405280600a81526020017f4d69636b6a61676765720000000000000000000000000000000000000000000081525081526020016040518060400160405280600781526020017f4d6572637572790000000000000000000000000000000000000000000000000081525081526020016040518060400160405280600b81526020017f53746576656e74796c657200000000000000000000000000000000000000000081525081526020016040518060400160405280600481526020017f426f6e6f0000000000000000000000000000000000000000000000000000000081525081526020016040518060400160405280600981526020017f456e74776973746c65000000000000000000000000000000000000000000000081525081526020016040518060400160405280600881526020017f4d6f727269736f6e00000000000000000000000000000000000000000000000081525081526020016040518060400160405280600a81526020017f4b757274636f6261696e00000000000000000000000000000000000000000000815250815250600c90600c6200058e92919062000abd565b506040518061014001604052806040518060400160405280600981526020017f596573746572646179000000000000000000000000000000000000000000000081525081526020016040518060400160405280600981526020017f53746172746d657570000000000000000000000000000000000000000000000081525081526020016040518060400160405280600a81526020017f576f6e64657277616c6c0000000000000000000000000000000000000000000081525081526020016040518060400160405280600681526020017f466978796f75000000000000000000000000000000000000000000000000000081525081526020016040518060400160405280600c81526020017f4c6f76656f666d796c696665000000000000000000000000000000000000000081525081526020016040518060400160405280600781526020017f447265616d6f6e0000000000000000000000000000000000000000000000000081525081526020016040518060400160405280600c81526020017f42656175746966756c646179000000000000000000000000000000000000000081525081526020016040518060400160405280600e81526020017f426568696e64626c75656579657300000000000000000000000000000000000081525081526020016040518060400160405280600b81526020017f4c696768746d796669726500000000000000000000000000000000000000000081525081526020016040518060400160405280600c81526020017f436f6d656173796f756172650000000000000000000000000000000000000000815250815250600d90600a620007f992919062000a56565b503480156200080757600080fd5b506040518060400160405280600981526020017f5371756172654e465400000000000000000000000000000000000000000000008152506040518060400160405280600681526020017f535155415245000000000000000000000000000000000000000000000000000081525081600090805190602001906200088c929190620009c5565b508060019080519060200190620008a5929190620009c5565b505050620008f36040518060400160405280601e81526020017f54686973206973206d79204e465420636f6e74726163742e20576f6168210000815250620008f960201b620012e21760201c565b62000cde565b620009998160405160240162000910919062000bf2565b6040516020818303038152906040527f41304fac000000000000000000000000000000000000000000000000000000007bffffffffffffffffffffffffffffffffffffffffffffffffffffffff19166020820180517bffffffffffffffffffffffffffffffffffffffffffffffffffffffff83818316178352505050506200099c60201b60201c565b50565b60008151905060006a636f6e736f6c652e6c6f679050602083016000808483855afa5050505050565b828054620009d39062000c68565b90600052602060002090601f016020900481019282620009f7576000855562000a43565b82601f1062000a1257805160ff191683800117855562000a43565b8280016001018555821562000a43579182015b8281111562000a4257825182559160200191906001019062000a25565b5b50905062000a52919062000b24565b5090565b82805482825590600052602060002090810192821562000aaa579160200282015b8281111562000aa957825182908051906020019062000a98929190620009c5565b509160200191906001019062000a77565b5b50905062000ab9919062000b43565b5090565b82805482825590600052602060002090810192821562000b11579160200282015b8281111562000b1057825182908051906020019062000aff929190620009c5565b509160200191906001019062000ade565b5b50905062000b20919062000b43565b5090565b5b8082111562000b3f57600081600090555060010162000b25565b5090565b5b8082111562000b67576000818162000b5d919062000b6b565b5060010162000b44565b5090565b50805462000b799062000c68565b6000825580601f1062000b8d575062000bae565b601f01602090049060005260206000209081019062000bad919062000b24565b5b50565b600062000bbe8262000c16565b62000bca818562000c21565b935062000bdc81856020860162000c32565b62000be78162000ccd565b840191505092915050565b6000602082019050818103600083015262000c0e818462000bb1565b905092915050565b600081519050919050565b600082825260208201905092915050565b60005b8381101562000c5257808201518184015260208101905062000c35565b8381111562000c62576000848401525b50505050565b6000600282049050600182168062000c8157607f821691505b6020821081141562000c985762000c9762000c9e565b5b50919050565b7f4e487b7100000000000000000000000000000000000000000000000000000000600052602260045260246000fd5b6000601f19601f8301169050919050565b6139a78062000cee6000396000f3fe608060405234801561001057600080fd5b50600436106101215760003560e01c806370a08231116100ad578063b88d4fde11610071578063b88d4fde1461032e578063c575757a1461034a578063c87b56dd1461037a578063de9d132f146103aa578063e985e9c5146103b457610121565b806370a082311461027657806395d89b41146102a6578063a22cb465146102c4578063a2309ff8146102e0578063b187301f146102fe57610121565b806318160ddd116100f457806318160ddd146101c057806323b872dd146101de5780632de38d68146101fa57806342842e0e1461022a5780636352211e1461024657610121565b806301ffc9a71461012657806306fdde0314610156578063081812fc14610174578063095ea7b3146101a4575b600080fd5b610140600480360381019061013b9190612575565b6103e4565b60405161014d91906131fd565b60405180910390f35b61015e6104c6565b60405161016b9190613218565b60405180910390f35b61018e600480360381019061018991906125c7565b610558565b60405161019b919061316d565b60405180910390f35b6101be60048036038101906101b99190612539565b6105dd565b005b6101c86106f5565b6040516101d59190613498565b60405180910390f35b6101f860048036038101906101f39190612433565b6106fb565b005b610214600480360381019061020f91906125c7565b61075b565b6040516102219190613218565b60405180910390f35b610244600480360381019061023f9190612433565b610879565b005b610260600480360381019061025b91906125c7565b610899565b60405161026d919061316d565b60405180910390f35b610290600480360381019061028b91906123ce565b61094b565b60405161029d9190613498565b60405180910390f35b6102ae610a03565b6040516102bb9190613218565b60405180910390f35b6102de60048036038101906102d991906124fd565b610a95565b005b6102e8610c16565b6040516102f59190613498565b60405180910390f35b610318600480360381019061031391906125c7565b610c1c565b6040516103259190613218565b60405180910390f35b61034860048036038101906103439190612482565b610d3a565b005b610364600480360381019061035f91906125c7565b610d9c565b6040516103719190613218565b60405180910390f35b610394600480360381019061038f91906125c7565b610eba565b6040516103a19190613218565b60405180910390f35b6103b261100c565b005b6103ce60048036038101906103c991906123f7565b61124e565b6040516103db91906131fd565b60405180910390f35b60007f80ac58cd000000000000000000000000000000000000000000000000000000007bffffffffffffffffffffffffffffffffffffffffffffffffffffffff1916827bffffffffffffffffffffffffffffffffffffffffffffffffffffffff191614806104af57507f5b5e139f000000000000000000000000000000000000000000000000000000007bffffffffffffffffffffffffffffffffffffffffffffffffffffffff1916827bffffffffffffffffffffffffffffffffffffffffffffffffffffffff1916145b806104bf57506104be8261137b565b5b9050919050565b6060600080546104d590613737565b80601f016020809104026020016040519081016040528092919081815260200182805461050190613737565b801561054e5780601f106105235761010080835404028352916020019161054e565b820191906000526020600020905b81548152906001019060200180831161053157829003601f168201915b5050505050905090565b6000610563826113e5565b6105a2576040517f08c379a0000000000000000000000000000000000000000000000000000000008152600401610599906133f8565b60405180910390fd5b6004600083815260200190815260200160002060009054906101000a900473ffffffffffffffffffffffffffffffffffffffff169050919050565b60006105e882610899565b90508073ffffffffffffffffffffffffffffffffffffffff168373ffffffffffffffffffffffffffffffffffffffff161415610659576040517f08c379a000000000000000000000000000000000000000000000000000000000815260040161065090613458565b60405180910390fd5b8073ffffffffffffffffffffffffffffffffffffffff16610678611451565b73ffffffffffffffffffffffffffffffffffffffff1614806106a757506106a6816106a1611451565b61124e565b5b6106e6576040517f08c379a00000000000000000000000000000000000000000000000000000000081526004016106dd90613338565b60405180910390fd5b6106f08383611459565b505050565b60095481565b61070c610706611451565b82611512565b61074b576040517f08c379a000000000000000000000000000000000000000000000000000000000815260040161074290613478565b60405180910390fd5b6107568383836115f0565b505050565b6060600061078f61076b8461184c565b60405160200161077b9190613129565b6040516020818303038152906040526119f9565b9050600b80549050816107a291906137b2565b9050600b81815481106107de577f4e487b7100000000000000000000000000000000000000000000000000000000600052603260045260246000fd5b9060005260206000200180546107f390613737565b80601f016020809104026020016040519081016040528092919081815260200182805461081f90613737565b801561086c5780601f106108415761010080835404028352916020019161086c565b820191906000526020600020905b81548152906001019060200180831161084f57829003601f168201915b5050505050915050919050565b61089483838360405180602001604052806000815250610d3a565b505050565b6000806002600084815260200190815260200160002060009054906101000a900473ffffffffffffffffffffffffffffffffffffffff169050600073ffffffffffffffffffffffffffffffffffffffff168173ffffffffffffffffffffffffffffffffffffffff161415610942576040517f08c379a000000000000000000000000000000000000000000000000000000000815260040161093990613378565b60405180910390fd5b80915050919050565b60008073ffffffffffffffffffffffffffffffffffffffff168273ffffffffffffffffffffffffffffffffffffffff1614156109bc576040517f08c379a00000000000000000000000000000000000000000000000000000000081526004016109b390613358565b60405180910390fd5b600360008373ffffffffffffffffffffffffffffffffffffffff1673ffffffffffffffffffffffffffffffffffffffff168152602001908152602001600020549050919050565b606060018054610a1290613737565b80601f0160208091040260200160405190810160405280929190818152602001828054610a3e90613737565b8015610a8b5780601f10610a6057610100808354040283529160200191610a8b565b820191906000526020600020905b815481529060010190602001808311610a6e57829003601f168201915b5050505050905090565b610a9d611451565b73ffffffffffffffffffffffffffffffffffffffff168273ffffffffffffffffffffffffffffffffffffffff161415610b0b576040517f08c379a0000000000000000000000000000000000000000000000000000000008152600401610b02906132d8565b60405180910390fd5b8060056000610b18611451565b73ffffffffffffffffffffffffffffffffffffffff1673ffffffffffffffffffffffffffffffffffffffff16815260200190815260200160002060008473ffffffffffffffffffffffffffffffffffffffff1673ffffffffffffffffffffffffffffffffffffffff16815260200190815260200160002060006101000a81548160ff0219169083151502179055508173ffffffffffffffffffffffffffffffffffffffff16610bc5611451565b73ffffffffffffffffffffffffffffffffffffffff167f17307eab39ab6107e8899845ad3d59bd9653f200f220920489ca2b5937696c3183604051610c0a91906131fd565b60405180910390a35050565b60085481565b60606000610c50610c2c8461184c565b604051602001610c3c91906130c2565b6040516020818303038152906040526119f9565b9050600c8054905081610c6391906137b2565b9050600c8181548110610c9f577f4e487b7100000000000000000000000000000000000000000000000000000000600052603260045260246000fd5b906000526020600020018054610cb490613737565b80601f0160208091040260200160405190810160405280929190818152602001828054610ce090613737565b8015610d2d5780601f10610d0257610100808354040283529160200191610d2d565b820191906000526020600020905b815481529060010190602001808311610d1057829003601f168201915b5050505050915050919050565b610d4b610d45611451565b83611512565b610d8a576040517f08c379a0000000000000000000000000000000000000000000000000000000008152600401610d8190613478565b60405180910390fd5b610d9684848484611a2c565b50505050565b60606000610dd0610dac8461184c565b604051602001610dbc91906130a0565b6040516020818303038152906040526119f9565b9050600d8054905081610de391906137b2565b9050600d8181548110610e1f577f4e487b7100000000000000000000000000000000000000000000000000000000600052603260045260246000fd5b906000526020600020018054610e3490613737565b80601f0160208091040260200160405190810160405280929190818152602001828054610e6090613737565b8015610ead5780601f10610e8257610100808354040283529160200191610ead565b820191906000526020600020905b815481529060010190602001808311610e9057829003601f168201915b5050505050915050919050565b6060610ec5826113e5565b610f04576040517f08c379a0000000000000000000000000000000000000000000000000000000008152600401610efb906133d8565b60405180910390fd5b6000600660008481526020019081526020016000208054610f2490613737565b80601f0160208091040260200160405190810160405280929190818152602001828054610f5090613737565b8015610f9d5780601f10610f7257610100808354040283529160200191610f9d565b820191906000526020600020905b815481529060010190602001808311610f8057829003601f168201915b505050505090506000610fae611a88565b9050600081511415610fc4578192505050611007565b600082511115610ff9578082604051602001610fe192919061301c565b60405160208183030381529060405292505050611007565b61100284611a9f565b925050505b919050565b60095460085410611052576040517f08c379a0000000000000000000000000000000000000000000000000000000008152600401611049906132f8565b60405180910390fd5b6001600854611061919061356c565b60088190555060006110736007611b46565b905060006110808261075b565b9050600061108d83610c1c565b9050600061109a84610d9c565b905060008383836040516020016110b393929190613040565b60405160208183030381529060405290506000600a826040516020016110da929190613071565b6040516020818303038152906040529050600061111f836110fa84611b54565b60405160200161110b9291906130e4565b604051602081830303815290604052611b54565b9050600081604051602001611134919061314b565b60405160208183030381529060405290506111836040518060400160405280601581526020017f0a2d2d2d2d2d2d2d2d2d2d2d2d2d2d2d2d2d2d2d2d00000000000000000000008152506112e2565b61118c816112e2565b6111ca6040518060400160405280601581526020017f2d2d2d2d2d2d2d2d2d2d2d2d2d2d2d2d2d2d2d2d0a00000000000000000000008152506112e2565b6111d43389611d12565b6111de8882611d30565b6111e86007611da4565b61120b60405180606001604052806025815260200161390d602591398933611dba565b7febb98688741ffa4c7589bf325de30cf7becb63de567842e1ccdb6cb949fdc82c338960405161123c9291906131d4565b60405180910390a15050505050505050565b6000600560008473ffffffffffffffffffffffffffffffffffffffff1673ffffffffffffffffffffffffffffffffffffffff16815260200190815260200160002060008373ffffffffffffffffffffffffffffffffffffffff1673ffffffffffffffffffffffffffffffffffffffff16815260200190815260200160002060009054906101000a900460ff16905092915050565b611378816040516024016112f69190613218565b6040516020818303038152906040527f41304fac000000000000000000000000000000000000000000000000000000007bffffffffffffffffffffffffffffffffffffffffffffffffffffffff19166020820180517bffffffffffffffffffffffffffffffffffffffffffffffffffffffff8381831617835250505050611e59565b50565b60007f01ffc9a7000000000000000000000000000000000000000000000000000000007bffffffffffffffffffffffffffffffffffffffffffffffffffffffff1916827bffffffffffffffffffffffffffffffffffffffffffffffffffffffff1916149050919050565b60008073ffffffffffffffffffffffffffffffffffffffff166002600084815260200190815260200160002060009054906101000a900473ffffffffffffffffffffffffffffffffffffffff1673ffffffffffffffffffffffffffffffffffffffff1614159050919050565b600033905090565b816004600083815260200190815260200160002060006101000a81548173ffffffffffffffffffffffffffffffffffffffff021916908373ffffffffffffffffffffffffffffffffffffffff160217905550808273ffffffffffffffffffffffffffffffffffffffff166114cc83610899565b73ffffffffffffffffffffffffffffffffffffffff167f8c5be1e5ebec7d5bd14f71427d1e84f3dd0314c0f7b2291e5b200ac8c7c3b92560405160405180910390a45050565b600061151d826113e5565b61155c576040517f08c379a000000000000000000000000000000000000000000000000000000000815260040161155390613318565b60405180910390fd5b600061156783610899565b90508073ffffffffffffffffffffffffffffffffffffffff168473ffffffffffffffffffffffffffffffffffffffff1614806115d657508373ffffffffffffffffffffffffffffffffffffffff166115be84610558565b73ffffffffffffffffffffffffffffffffffffffff16145b806115e757506115e6818561124e565b5b91505092915050565b8273ffffffffffffffffffffffffffffffffffffffff1661161082610899565b73ffffffffffffffffffffffffffffffffffffffff1614611666576040517f08c379a000000000000000000000000000000000000000000000000000000000815260040161165d90613418565b60405180910390fd5b600073ffffffffffffffffffffffffffffffffffffffff168273ffffffffffffffffffffffffffffffffffffffff1614156116d6576040517f08c379a00000000000000000000000000000000000000000000000000000000081526004016116cd906132b8565b60405180910390fd5b6116e1838383611e82565b6116ec600082611459565b6001600360008573ffffffffffffffffffffffffffffffffffffffff1673ffffffffffffffffffffffffffffffffffffffff168152602001908152602001600020600082825461173c919061364d565b925050819055506001600360008473ffffffffffffffffffffffffffffffffffffffff1673ffffffffffffffffffffffffffffffffffffffff1681526020019081526020016000206000828254611793919061356c565b92505081905550816002600083815260200190815260200160002060006101000a81548173ffffffffffffffffffffffffffffffffffffffff021916908373ffffffffffffffffffffffffffffffffffffffff160217905550808273ffffffffffffffffffffffffffffffffffffffff168473ffffffffffffffffffffffffffffffffffffffff167fddf252ad1be2c89b69c2b068fc378daa952ba7f163c4a11628f55a4df523b3ef60405160405180910390a4505050565b60606000821415611894576040518060400160405280600181526020017f300000000000000000000000000000000000000000000000000000000000000081525090506119f4565b600082905060005b600082146118c65780806118af90613769565b915050600a826118bf91906135c2565b915061189c565b60008167ffffffffffffffff811115611908577f4e487b7100000000000000000000000000000000000000000000000000000000600052604160045260246000fd5b6040519080825280601f01601f19166020018201604052801561193a5781602001600182028036833780820191505090505b5090505b600085146119ed57600182611953919061364d565b9150600a8561196291906137b2565b603061196e919061356c565b60f81b8183815181106119aa577f4e487b7100000000000000000000000000000000000000000000000000000000600052603260045260246000fd5b60200101907effffffffffffffffffffffffffffffffffffffffffffffffffffffffffffff1916908160001a905350600a856119e691906135c2565b945061193e565b8093505050505b919050565b600081604051602001611a0c9190613005565b6040516020818303038152906040528051906020012060001c9050919050565b611a378484846115f0565b611a4384848484611e87565b611a82576040517f08c379a0000000000000000000000000000000000000000000000000000000008152600401611a7990613278565b60405180910390fd5b50505050565b606060405180602001604052806000815250905090565b6060611aaa826113e5565b611ae9576040517f08c379a0000000000000000000000000000000000000000000000000000000008152600401611ae090613438565b60405180910390fd5b6000611af3611a88565b90506000815111611b135760405180602001604052806000815250611b3e565b80611b1d8461184c565b604051602001611b2e92919061301c565b6040516020818303038152906040525b915050919050565b600081600001549050919050565b60606000825190506000811415611b7d5760405180602001604052806000815250915050611d0d565b60006003600283611b8e919061356c565b611b9891906135c2565b6004611ba491906135f3565b90506000602082611bb5919061356c565b67ffffffffffffffff811115611bf4577f4e487b7100000000000000000000000000000000000000000000000000000000600052604160045260246000fd5b6040519080825280601f01601f191660200182016040528015611c265781602001600182028036833780820191505090505b5090506000604051806060016040528060408152602001613932604091399050600181016020830160005b86811015611cca5760038101905062ffffff818a015116603f8160121c168401518060081b905060ff603f83600c1c1686015116810190508060081b905060ff603f8360061c1686015116810190508060081b905060ff603f831686015116810190508060e01b90508084526004840193505050611c51565b506003860660018114611ce45760028114611cf457611cff565b613d3d60f01b6002830352611cff565b603d60f81b60018303525b508484525050819450505050505b919050565b611d2c82826040518060200160405280600081525061201e565b5050565b611d39826113e5565b611d78576040517f08c379a0000000000000000000000000000000000000000000000000000000008152600401611d6f90613398565b60405180910390fd5b80600660008481526020019081526020016000209080519060200190611d9f92919061225a565b505050565b6001816000016000828254019250508190555050565b611e54838383604051602401611dd29392919061323a565b6040516020818303038152906040527fe3849f79000000000000000000000000000000000000000000000000000000007bffffffffffffffffffffffffffffffffffffffffffffffffffffffff19166020820180517bffffffffffffffffffffffffffffffffffffffffffffffffffffffff8381831617835250505050611e59565b505050565b60008151905060006a636f6e736f6c652e6c6f679050602083016000808483855afa5050505050565b505050565b6000611ea88473ffffffffffffffffffffffffffffffffffffffff16612079565b15612011578373ffffffffffffffffffffffffffffffffffffffff1663150b7a02611ed1611451565b8786866040518563ffffffff1660e01b8152600401611ef39493929190613188565b602060405180830381600087803b158015611f0d57600080fd5b505af1925050508015611f3e57506040513d601f19601f82011682018060405250810190611f3b919061259e565b60015b611fc1573d8060008114611f6e576040519150601f19603f3d011682016040523d82523d6000602084013e611f73565b606091505b50600081511415611fb9576040517f08c379a0000000000000000000000000000000000000000000000000000000008152600401611fb090613278565b60405180910390fd5b805181602001fd5b63150b7a0260e01b7bffffffffffffffffffffffffffffffffffffffffffffffffffffffff1916817bffffffffffffffffffffffffffffffffffffffffffffffffffffffff191614915050612016565b600190505b949350505050565b612028838361208c565b6120356000848484611e87565b612074576040517f08c379a000000000000000000000000000000000000000000000000000000000815260040161206b90613278565b60405180910390fd5b505050565b600080823b905060008111915050919050565b600073ffffffffffffffffffffffffffffffffffffffff168273ffffffffffffffffffffffffffffffffffffffff1614156120fc576040517f08c379a00000000000000000000000000000000000000000000000000000000081526004016120f3906133b8565b60405180910390fd5b612105816113e5565b15612145576040517f08c379a000000000000000000000000000000000000000000000000000000000815260040161213c90613298565b60405180910390fd5b61215160008383611e82565b6001600360008473ffffffffffffffffffffffffffffffffffffffff1673ffffffffffffffffffffffffffffffffffffffff16815260200190815260200160002060008282546121a1919061356c565b92505081905550816002600083815260200190815260200160002060006101000a81548173ffffffffffffffffffffffffffffffffffffffff021916908373ffffffffffffffffffffffffffffffffffffffff160217905550808273ffffffffffffffffffffffffffffffffffffffff16600073ffffffffffffffffffffffffffffffffffffffff167fddf252ad1be2c89b69c2b068fc378daa952ba7f163c4a11628f55a4df523b3ef60405160405180910390a45050565b82805461226690613737565b90600052602060002090601f01602090048101928261228857600085556122cf565b82601f106122a157805160ff19168380011785556122cf565b828001600101855582156122cf579182015b828111156122ce5782518255916020019190600101906122b3565b5b5090506122dc91906122e0565b5090565b5b808211156122f95760008160009055506001016122e1565b5090565b600061231061230b846134e4565b6134b3565b90508281526020810184848401111561232857600080fd5b6123338482856136f5565b509392505050565b60008135905061234a816138b0565b92915050565b60008135905061235f816138c7565b92915050565b600081359050612374816138de565b92915050565b600081519050612389816138de565b92915050565b600082601f8301126123a057600080fd5b81356123b08482602086016122fd565b91505092915050565b6000813590506123c8816138f5565b92915050565b6000602082840312156123e057600080fd5b60006123ee8482850161233b565b91505092915050565b6000806040838503121561240a57600080fd5b60006124188582860161233b565b92505060206124298582860161233b565b9150509250929050565b60008060006060848603121561244857600080fd5b60006124568682870161233b565b93505060206124678682870161233b565b9250506040612478868287016123b9565b9150509250925092565b6000806000806080858703121561249857600080fd5b60006124a68782880161233b565b94505060206124b78782880161233b565b93505060406124c8878288016123b9565b925050606085013567ffffffffffffffff8111156124e557600080fd5b6124f18782880161238f565b91505092959194509250565b6000806040838503121561251057600080fd5b600061251e8582860161233b565b925050602061252f85828601612350565b9150509250929050565b6000806040838503121561254c57600080fd5b600061255a8582860161233b565b925050602061256b858286016123b9565b9150509250929050565b60006020828403121561258757600080fd5b600061259584828501612365565b91505092915050565b6000602082840312156125b057600080fd5b60006125be8482850161237a565b91505092915050565b6000602082840312156125d957600080fd5b60006125e7848285016123b9565b91505092915050565b6125f981613681565b82525050565b61260881613693565b82525050565b600061261982613529565b612623818561353f565b9350612633818560208601613704565b61263c8161389f565b840191505092915050565b600061265282613534565b61265c8185613550565b935061266c818560208601613704565b6126758161389f565b840191505092915050565b600061268b82613534565b6126958185613561565b93506126a5818560208601613704565b80840191505092915050565b600081546126be81613737565b6126c88186613561565b945060018216600081146126e357600181146126f457612727565b60ff19831686528186019350612727565b6126fd85613514565b60005b8381101561271f57815481890152600182019150602081019050612700565b838801955050505b50505092915050565b600061273d603283613550565b91507f4552433732313a207472616e7366657220746f206e6f6e20455243373231526560008301527f63656976657220696d706c656d656e74657200000000000000000000000000006020830152604082019050919050565b60006127a3601c83613550565b91507f4552433732313a20746f6b656e20616c7265616479206d696e746564000000006000830152602082019050919050565b60006127e3600a83613561565b91507f54484952445f574f5244000000000000000000000000000000000000000000006000830152600a82019050919050565b6000612823602483613550565b91507f4552433732313a207472616e7366657220746f20746865207a65726f2061646460008301527f72657373000000000000000000000000000000000000000000000000000000006020830152604082019050919050565b6000612889601983613550565b91507f4552433732313a20617070726f766520746f2063616c6c6572000000000000006000830152602082019050919050565b60006128c9606383613561565b91507f222c20226465736372697074696f6e223a20224120686967686c79206163636c60008301527f61696d656420636f6c6c656374696f6e206f6620737175617265732e222c202260208301527f696d616765223a2022646174613a696d6167652f7376672b786d6c3b6261736560408301527f36342c00000000000000000000000000000000000000000000000000000000006060830152606382019050919050565b600061297b602983613550565b91507f54686520746f74616c206e756d626572206f66204e465473206861766520626560008301527f656e206d696e74656400000000000000000000000000000000000000000000006020830152604082019050919050565b60006129e1600b83613561565b91507f5345434f4e445f574f52440000000000000000000000000000000000000000006000830152600b82019050919050565b6000612a21602c83613550565b91507f4552433732313a206f70657261746f7220717565727920666f72206e6f6e657860008301527f697374656e7420746f6b656e00000000000000000000000000000000000000006020830152604082019050919050565b6000612a87600d83613561565b91507f3c2f746578743e3c2f7376673e000000000000000000000000000000000000006000830152600d82019050919050565b6000612ac7603883613550565b91507f4552433732313a20617070726f76652063616c6c6572206973206e6f74206f7760008301527f6e6572206e6f7220617070726f76656420666f7220616c6c00000000000000006020830152604082019050919050565b6000612b2d602a83613550565b91507f4552433732313a2062616c616e636520717565727920666f7220746865207a6560008301527f726f2061646472657373000000000000000000000000000000000000000000006020830152604082019050919050565b6000612b93602983613550565b91507f4552433732313a206f776e657220717565727920666f72206e6f6e657869737460008301527f656e7420746f6b656e00000000000000000000000000000000000000000000006020830152604082019050919050565b6000612bf9602e83613550565b91507f45524337323155524953746f726167653a2055524920736574206f66206e6f6e60008301527f6578697374656e7420746f6b656e0000000000000000000000000000000000006020830152604082019050919050565b6000612c5f600283613561565b91507f227d0000000000000000000000000000000000000000000000000000000000006000830152600282019050919050565b6000612c9f602083613550565b91507f4552433732313a206d696e7420746f20746865207a65726f20616464726573736000830152602082019050919050565b6000612cdf603183613550565b91507f45524337323155524953746f726167653a2055524920717565727920666f722060008301527f6e6f6e6578697374656e7420746f6b656e0000000000000000000000000000006020830152604082019050919050565b6000612d45602c83613550565b91507f4552433732313a20617070726f76656420717565727920666f72206e6f6e657860008301527f697374656e7420746f6b656e00000000000000000000000000000000000000006020830152604082019050919050565b6000612dab602983613550565b91507f4552433732313a207472616e73666572206f6620746f6b656e2074686174206960008301527f73206e6f74206f776e00000000000000000000000000000000000000000000006020830152604082019050919050565b6000612e11602f83613550565b91507f4552433732314d657461646174613a2055524920717565727920666f72206e6f60008301527f6e6578697374656e7420746f6b656e00000000000000000000000000000000006020830152604082019050919050565b6000612e77600a83613561565b91507f7b226e616d65223a2022000000000000000000000000000000000000000000006000830152600a82019050919050565b6000612eb7602183613550565b91507f4552433732313a20617070726f76616c20746f2063757272656e74206f776e6560008301527f72000000000000000000000000000000000000000000000000000000000000006020830152604082019050919050565b6000612f1d600a83613561565b91507f46495253545f574f5244000000000000000000000000000000000000000000006000830152600a82019050919050565b6000612f5d601d83613561565b91507f646174613a6170706c69636174696f6e2f6a736f6e3b6261736536342c0000006000830152601d82019050919050565b6000612f9d603183613550565b91507f4552433732313a207472616e736665722063616c6c6572206973206e6f74206f60008301527f776e6572206e6f7220617070726f7665640000000000000000000000000000006020830152604082019050919050565b612fff816136eb565b82525050565b60006130118284612680565b915081905092915050565b60006130288285612680565b91506130348284612680565b91508190509392505050565b600061304c8286612680565b91506130588285612680565b91506130648284612680565b9150819050949350505050565b600061307d82856126b1565b91506130898284612680565b915061309482612a7a565b91508190509392505050565b60006130ab826127d6565b91506130b78284612680565b915081905092915050565b60006130cd826129d4565b91506130d98284612680565b915081905092915050565b60006130ef82612e6a565b91506130fb8285612680565b9150613106826128bc565b91506131128284612680565b915061311d82612c52565b91508190509392505050565b600061313482612f10565b91506131408284612680565b915081905092915050565b600061315682612f50565b91506131628284612680565b915081905092915050565b600060208201905061318260008301846125f0565b92915050565b600060808201905061319d60008301876125f0565b6131aa60208301866125f0565b6131b76040830185612ff6565b81810360608301526131c9818461260e565b905095945050505050565b60006040820190506131e960008301856125f0565b6131f66020830184612ff6565b9392505050565b600060208201905061321260008301846125ff565b92915050565b600060208201905081810360008301526132328184612647565b905092915050565b600060608201905081810360008301526132548186612647565b90506132636020830185612ff6565b61327060408301846125f0565b949350505050565b6000602082019050818103600083015261329181612730565b9050919050565b600060208201905081810360008301526132b181612796565b9050919050565b600060208201905081810360008301526132d181612816565b9050919050565b600060208201905081810360008301526132f18161287c565b9050919050565b600060208201905081810360008301526133118161296e565b9050919050565b6000602082019050818103600083015261333181612a14565b9050919050565b6000602082019050818103600083015261335181612aba565b9050919050565b6000602082019050818103600083015261337181612b20565b9050919050565b6000602082019050818103600083015261339181612b86565b9050919050565b600060208201905081810360008301526133b181612bec565b9050919050565b600060208201905081810360008301526133d181612c92565b9050919050565b600060208201905081810360008301526133f181612cd2565b9050919050565b6000602082019050818103600083015261341181612d38565b9050919050565b6000602082019050818103600083015261343181612d9e565b9050919050565b6000602082019050818103600083015261345181612e04565b9050919050565b6000602082019050818103600083015261347181612eaa565b9050919050565b6000602082019050818103600083015261349181612f90565b9050919050565b60006020820190506134ad6000830184612ff6565b92915050565b6000604051905081810181811067ffffffffffffffff821117156134da576134d9613870565b5b8060405250919050565b600067ffffffffffffffff8211156134ff576134fe613870565b5b601f19601f8301169050602081019050919050565b60008190508160005260206000209050919050565b600081519050919050565b600081519050919050565b600082825260208201905092915050565b600082825260208201905092915050565b600081905092915050565b6000613577826136eb565b9150613582836136eb565b9250827fffffffffffffffffffffffffffffffffffffffffffffffffffffffffffffffff038211156135b7576135b66137e3565b5b828201905092915050565b60006135cd826136eb565b91506135d8836136eb565b9250826135e8576135e7613812565b5b828204905092915050565b60006135fe826136eb565b9150613609836136eb565b9250817fffffffffffffffffffffffffffffffffffffffffffffffffffffffffffffffff0483118215151615613642576136416137e3565b5b828202905092915050565b6000613658826136eb565b9150613663836136eb565b925082821015613676576136756137e3565b5b828203905092915050565b600061368c826136cb565b9050919050565b60008115159050919050565b60007fffffffff0000000000000000000000000000000000000000000000000000000082169050919050565b600073ffffffffffffffffffffffffffffffffffffffff82169050919050565b6000819050919050565b82818337600083830152505050565b60005b83811015613722578082015181840152602081019050613707565b83811115613731576000848401525b50505050565b6000600282049050600182168061374f57607f821691505b6020821081141561376357613762613841565b5b50919050565b6000613774826136eb565b91507fffffffffffffffffffffffffffffffffffffffffffffffffffffffffffffffff8214156137a7576137a66137e3565b5b600182019050919050565b60006137bd826136eb565b91506137c8836136eb565b9250826137d8576137d7613812565b5b828206905092915050565b7f4e487b7100000000000000000000000000000000000000000000000000000000600052601160045260246000fd5b7f4e487b7100000000000000000000000000000000000000000000000000000000600052601260045260246000fd5b7f4e487b7100000000000000000000000000000000000000000000000000000000600052602260045260246000fd5b7f4e487b7100000000000000000000000000000000000000000000000000000000600052604160045260246000fd5b6000601f19601f8301169050919050565b6138b981613681565b81146138c457600080fd5b50565b6138d081613693565b81146138db57600080fd5b50565b6138e78161369f565b81146138f257600080fd5b50565b6138fe816136eb565b811461390957600080fd5b5056fe416e204e465420772f20494420257320686173206265656e206d696e74656420746f2025734142434445464748494a4b4c4d4e4f505152535455565758595a6162636465666768696a6b6c6d6e6f707172737475767778797a303132333435363738392b2fa2646970667358221220419c8797abd2e12a66cdf4f0d148fc4911efe3bb47ed59d373bf60124d8d624a64736f6c634300080000333c73766720786d6c6e733d27687474703a2f2f7777772e77332e6f72672f323030302f73766727207072657365727665417370656374526174696f3d27784d696e594d696e206d656574272076696577426f783d273020302033353020333530273e3c7374796c653e2e62617365207b2066696c6c3a2077686974653b20666f6e742d66616d696c793a2073657269663b20666f6e742d73697a653a20323470783b207d3c2f7374796c653e3c726563742077696474683d273130302527206865696768743d2731303025272066696c6c3d27626c61636b27202f3e3c7465787420783d273530252720793d273530252720636c6173733d27626173652720646f6d696e616e742d626173656c696e653d276d6964646c652720746578742d616e63686f723d276d6964646c65273e",
  "linkReferences": {},
  "deployedLinkReferences": {}
}